:020000040800F2
:100000007006002069010008AF030008A70300087C
:10001000AB030008A103000865040008000000000D
:10002000000000000000000000000000F3030008D2
:10003000A503000800000000F1030008F503000814
:100040008301000883010008830100088301000880
:100050008301000883010008830100088301000870
:1000600000000000830100088301000883010008EC
:1000700083010008830100088301000800000000DC
:1000800083010008830100080000000083010008CC
:100090008301000883010008830100088301000830
:1000A0008301000883010008830100088301000820
:1000B00083010008000000000000000000000000B4
:1000C00083010008000000008301000800F002F82E
:1000D00000F03AF80AA090E8000C82448344AAF1A8
:1000E0000107DA4501D100F02FF8AFF2090EBAE8A6
:1000F0000F0013F0010F18BFFB1A43F0010318475C
:10010000A40F0000C40F0000103A24BF78C878C1C3
:10011000FAD8520724BF30C830C144BF04680C600D
:10012000704700000023002400250026103A28BF55
:1001300078C1FBD8520728BF30C148BF0B60704759
:100140001FB51FBD10B510BD00F0E4F81146FFF754
:10015000F7FF00F09DFC00F016F903B4FFF7F2FF83
:1001600003BC00F09DF9000009488047094800479A
:10017000FEE7FEE7FEE7FEE7FEE7FEE7FEE7FEE757
:10018000FEE7FEE704480549054A064B70470000B4
:10019000F9030008CD000008700000207006002060
:1001A0007002002070020020704753EA020C00F039
:1001B00069802DE9F04B4FF00006002B1FBFB3FA0A
:1001C00083F503FA05F424FA05F65E4012BF1643E0
:1001D000B2FA82F502FA05F4C5F120051EBF22FA33
:1001E00005FC44EA0C04203556EA044C4FEA14445A
:1001F00018BF641C4FF000084FF00009904271EBEB
:10020000030C39D3002919BFB1FA81F701FA07F6B7
:10021000B0FA80F700FA07F6C7F120071EBF20FAF0
:1002200007FC46EA0C062037B6FBF4FCA7EB0507F3
:10023000103F07F01F0BCBF120060CFA0BFB2CFA3A
:1002400006F644BFB3460026202FA4BF5E464FF0FB
:10025000000B5BEA060C08BF4FF0010B19EB0B0912
:10026000ABFB027C48EB0608C01B06FB02CC0BFB79
:1002700003CC71EB0C01C1E70B46024641464846F0
:10028000BDE8F08B13B54FF000004FF00001AFF365
:100290000080BDE81C4070470FB4044910B503AAA4
:1002A000029800F009F810BC5DF814FB040000206F
:1002B0007047704770477047074B70B50D467B44D9
:1002C00000F011F80446284600F020F810B14FF075
:1002D000FF3070BD204670BDC306000001694A1C96
:1002E00002610878704700B58FB0CDE90131002177
:1002F000059105497944CDE903101146684600F09F
:100300002EF80FB000BD0000E5FFFFFF007B00F0FE
:1003100080007047754600F03FF8AE46050069461C
:10032000534620F00700854618B020B5FFF72AFF96
:10033000BDE820404FF000064FF000074FF00008E6
:100340004FF0000B21F00701AC46ACE8C009ACE867
:10035000C009ACE8C009ACE8C0098D4670472DE97A
:10036000F04106460024D6E90170F5688046304623
:1003700003E04146B847641C3046A8470028F8D13E
:100380002046BDE8F08110B50446AFF3008020465A
:10039000BDE81040FFF7E1BE004870470C000020A8
:1003A00000BFFEE7704700BFFEE700BFFEE77047F3
:1003B000F0B503460C4603F00701C1F1070004281D
:1003C00001D9042001E0C1F107000646081D0728F5
:1003D00001D2002000E0C81E05460120B040401EAA
:1003E0002040A8400127AF407F1E17403843F0BD92
:1003F00070477047704700001748006820F0010000
:10040000401C1549086000BF13480068C0F3400055
:100410000028F9D01048406820F003000E494860D9
:1004200000BF0D484068C0F381000028F9D10A4898
:1004300000680A490840084908600020486041F601
:100440001070C8624FF4801008634FF41F0088607A
:10045000C80303490860704700100240FFFFF2FE26
:1004600008ED00E000BFFEE702480068C0F302208C
:10047000704700000CED00E010B5002804DB0A070F
:10048000130E054A135406E00A07140E034A00F03F
:100490000F031B1FD45410BD00E400E018ED00E072
:1004A00000BF70470349496860F30711014A516072
:1004B00070470000001002400349496860F30A21B8
:1004C000014A51607047000000100240034949682A
:1004D00060F3CD21014A51607047000000100240D6
:1004E000012807D10749496D21F030013031054A13
:1004F000516505E00349496D21F03001014A51651C
:100500007047000000100240052827D2DFE800F005
:10051000030A11181F00134A126861F30002114BFD
:100520001A601CE00F4A126861F310420D4B1A600A
:1005300015E00C4A126861F318620A4B1A600EE06B
:10054000084A126A61F30002064B1A6207E0054A84
:10055000526A61F30002034B5A6200E000BF00BF21
:1005600070470000001002402DE9F04F85B00446AE
:100570000025AA46AB460026A94600200490039019
:100580000290019000F0DAF90090009820B1012863
:1005900012D0022875D112E05648406DC0F34020B9
:1005A00038B15448006BC0F3406010B1524820602D
:1005B00001E05248206067E05048206064E04D4808
:1005C0004068C0F3004B4B48C06AC00F30BB49487D
:1005D0004068C0F3834547484068C0F3417ABAF1A8
:1005E000000F01D10F2D04D14FEA0A10401C054421
:1005F00000E0AD1CBBF1000F03D14148684320600F
:100600003DE03C484068C0F3404018B13C48684376
:10061000206034E039486843206030E03548C06AE3
:10062000C0F3031003903348C06AC0F3082002905F
:100630003048C06A00F007000190BBF1000F02D102
:100640002F48049009E02B484068C0F3404010B1A7
:100650002B48049001E0294804900121019801FAF7
:1006600000F0039900FB01FC02990498A0FB0170C3
:100670000146624600233846FFF797FD206003E0FD
:10068000FFE71E48206000BF00BF1A484068C0F363
:1006900003161C4810F80690206820FA09F06060E4
:1006A00014484068C0F30226174810F806906068A6
:1006B00020FA09F0E0600F484068C0F3C2261348F2
:1006C00010F80690606820FA09F0A06009484068B8
:1006D000C0F3007607484068C0F3813040EA8606E0
:1006E0000B4810F80690A068B0FBF9F0206105B047
:1006F000BDE8F08F00100240006CDC0200127A00AE
:1007000000093D006C1000087C10000884100008EF
:100710008C10000810B501460020094B03EB114274
:10072000126801F01F040123A3401A4001F01F04C6
:100730000123A3409A4200D000E0012010BD000038
:100740000010024010B501290DD10E4B03EB1042F1
:10075000126800F01F040123A3401A43094C04EB64
:1007600010431A600CE0074B03EB1042126800F0D4
:100770001F040123A3409A43024C04EB10431A6068
:1007800010BD00000010024030B5024600200023DA
:1007900072B9354C646824F48034334D6C6033484E
:1007A0002C46246B24F0007404F100742C6319E0CF
:1007B0002D4C646824F4803404F580342A4D6C6038
:1007C000012A06D12A482C46646824F400346C605F
:1007D00008E02648244C646824F4003404F500340E
:1007E000214D6C60234CA04204D9234CA04201D27D
:1007F000002326E0214CA04204D9214CA04201D282
:1008000001231EE01F4CA04204D91F4CA04201D27C
:10081000022316E01C4CA04204D91C4CA04201D279
:1008200003230EE01A4CA04204D91A4CA04201D274
:10083000042306E0174CA04203D9174CA04200D273
:100840000523094C646861F39544074D6C600D09FC
:10085000054C646865F35E74034D6C602C46E46A75
:1008600063F31A64EC6230BD0010024000093D00E1
:1008700000127A0060823B00404B4C0080584F00D1
:10088000105E5F0094357700101B7F0020BCBE0017
:10089000286BEE0030D73D01D8E9DC01164800682E
:1008A00020F00100401C1449086000BF1248006895
:1008B000C0F340000028F9D00F48406820F0030042
:1008C0000D49486000BF0C484068C0F38100002813
:1008D000F9D1094800680949084007490860002023
:1008E000486041F61070C8624FF4801008634FF4FE
:1008F0001F0088607047000000100240FFFFF2FEFA
:100900000D49496860F301010B4A516000BF00BF07
:1009100000BF00BF00BF00BF00BF00BF00BF00BFDF
:1009200000BF00BF00BF00BF00BF00BF00BF00BFCF
:1009300000BF00BF7047000000100240024840683E
:10094000C0F38100704700000010024030B502463D
:100950000A4D2D6802FB05F3094D296800BF084DBB
:100960002868884201D80D1A04E04FF6FF752D1A49
:100970000D446D1C2C469C42F1D330BD000000207C
:10098000242C014070B504460D4600BF8021094863
:1009900000F083F90028F9D0A1B2064800F074F9FC
:1009A00000BF4021034800F078F90028F9D0204624
:1009B00070BD00000038014081627047816170475E
:1009C0004FF6FF71016000218171017141710121B8
:1009D000C171704770B50A4600211488A3B233E094
:1009E00003F001046CB304684E000325B540AC432A
:1009F000046094794D00AC4005682C430460446861
:100A000001258D40AC434460446815798D402C43EA
:100A1000446084684E000325B540AC438460D479BB
:100A20004D00AC4085682C438460C4684E000325AB
:100A3000B540AC43C46054794D00AC40C5682C430C
:100A4000C4605B104C1CA1B2002BC9DC70BDF0B5BA
:100A5000002300244D07ED0E02FA05F3CD105DB121
:100A6000456A4E07F70E0F26BE40B5434562456AFC
:100A700045EA030444620AE0056A4E07F70E0F26B2
:100A8000BE40B5430562056A45EA03040462F0BD51
:100A900000F04AFA00F030FA00F0CEF900F08CFADB
:100AA00000F0AEFA00F0AAF914E04FF400510A4841
:100AB000FFF782FF4FF4967000F08BF94FF400516E
:100AC0000548FFF77BFF4FF4967000F082F903A012
:100AD000FFF7E2FBE9E700000008004861743332E9
:100AE00020746573740A000000BF00F00702064B13
:100AF00019684FF6FF031940044B0B4343EA0221E8
:100B0000014B196000BF70470CED00E00000FA05D2
:100B10002DE9FF5F002400250026A146A246A3463A
:100B20000020039002900190FFF708FF00900098CA
:100B300020B1012814D0022874D115E04348406D3B
:100B4000C0F3402040B14148006BC0F3406018B191
:100B50003F484049086002E03F483E49086065E080
:100B60003D483C49086061E038484068C0F30046B1
:100B70003648C06AC00F20BB34484068C0F3834485
:100B800032484068C0F341750DB90F2C03D12801DC
:100B9000401C044400E0A41C26B9304860432D49A1
:100BA00008603DE029484068C0F3404020B12B4830
:100BB00060432849086033E02748604325490860BE
:100BC0002EE02248C06AC0F3031003901F48C06A99
:100BD000C0F3082002901D48C06A00F00700019091
:100BE00016B9DFF878B009E018484068C0F3404013
:100BF00010B1DFF868B001E0DFF85CB001210198C6
:100C000001FA00F0039900FB01FC0298ABFB0070B5
:100C10000146624600233846FFF7C7FA0D490860CF
:100C200004E0FFE70C480B49086000BF00BF07481D
:100C30004068C0F303190A4810F809A00548006885
:100C400020FA0AF003490860BDE8FF9F0010024047
:100C5000006CDC020800002000127A0000093D0050
:100C600094100008C1628262436923F001035B1C97
:100C700043617047026861F30612026070470268C0
:100C800061F3000202607047C1F3080242607047DE
:100C9000C26861F34D32C260704702461068084076
:100CA00008B1012070470020FCE741B9426922F4F5
:100CB00080724261426922F40072426127E0012998
:100CC0000AD1426922F4807202F58072426142695F
:100CD00022F4007242611AE002290AD1426922F428
:100CE00080724261426922F4007202F50072426130
:100CF0000DE003290BD1426922F4807202F5807263
:100D00004261426922F4007202F50072426170474A
:100D10002DE9F04385B004460F4690469946684653
:100D2000FFF722FC1448844201D1029E00E0039E9A
:100D300006EB86004000B0FBF7F50A20B5FBF0F1AA
:100D400000FB1150052803D20A20B5FBF0F503E0A3
:100D50000A20B5FBF0F0451CA06865F30F00A06009
:100D6000E06868F30C30E060206969F30D302061C1
:100D700005B0BDE8F08300000038014041B9C26809
:100D800022F40072C260C26822F48062C2601AE07B
:100D900001290AD1C26822F40072C260C26822F43A
:100DA000806202F58062C2600DE002290BD1C26848
:100DB00022F4007202F50072C260C26822F48062FE
:100DC00002F58062C2607047C26861F3C302C2600C
:100DD000704710B504460EE0322C05D94CF2503065
:100DE000FFF7B4FD323C06E04FF47A7104FB01F0EA
:100DF000FFF7ACFD0024002CEED110BD1CB56846F9
:100E0000FFF7DEFD4FF400510A48FFF7D5FD022041
:100E10008DF8070000208DF8040001208DF80600F1
:100E20004003009000208DF8050069460148FFF757
:100E3000D1FD1CBD0008004870B50320FFF754FE2B
:100E4000FFF712FB054600221146FFF7B1FA0446F0
:100E500021466FF00B00FFF70FFBFFF705FB054680
:100E600000221146FFF7A4FA044621466FF00A005B
:100E7000FFF702FBFFF7F8FA054600221146FFF7DD
:100E800097FA044621466FF00900FFF7F5FAFFF7DD
:100E9000EBFA054600221146FFF78AFA044621467E
:100EA0006FF00400FFF7E8FAFFF7DEFA05460022CC
:100EB0001146FFF77DFA044621466FF00300FFF765
:100EC000DBFAFFF7D1FA054600221146FFF770FA68
:100ED000044621466FF00100FFF7CEFAFFF7C4FA8F
:100EE000054600220F21FFF763FA044621464FF022
:100EF000FF30FFF7C1FA70BD10B501210848FFF7B8
:100F000021FC01210648801CFFF71CFC012105483B
:100F1000FFF718FC01210348C01CFFF713FC10BDAC
:100F2000110014000B00180010B5FFF7B7FC40F2D9
:100F300053101F49086001210420FFF7E5FA00BFA4
:100F40001C48FFF7E7FB0128FAD101210020FFF739
:100F5000DBFA00BF0120FFF7DDFB0128FAD11D21DC
:100F60000020FFF711FC01210220FFF7CDFA00BF9E
:100F70001920FFF7CFFB0128FAD10020FFF792FAE2
:100F80000020FFF7A3FA0020FFF796FA0120FFF7F1
:100F9000A7FA0220FFF7B4FC00BFFFF7CFFC02283E
:100FA000FBD10020FFF79CFAFFF7B2FD10BD000057
:100FB000002002400100240030B585B000256846BD
:100FC000FFF7D2FA029D0B48B5FBF0F0441E224613
:100FD0004FF6FF710848FFF745FE012007490860FA
:100FE00001210548FFF746FE01210348FFF747FEB0
:100FF00005B030BD40420F00002C01400000002031
:101000001CB56846FFF7DCFC01220921C806FFF782
:101010001EFD02208DF8070000208DF8040002203C
:101020008DF806000002009000208DF8050069464A
:101030004FF09040FFF7CEFC00231A464FF4E13109
:101040000948FFF765FE01210748FFF7BDFE0021B3
:101050000548FFF793FE00210348FFF726FE012114
:101060000148FFF715FE1CBD0038014000000000DC
:101070000000000001020304060708090000000048
:101080000102030400000000010203040204060838
:10109000020C081000000000000000000102030420
:1010A00006070809C4100008000000200C0000001A
:1010B00008010008D01000080C00002064060000A1
:1010C00024010008000000000000000000127A0067
:04000005080000CD22
:00000001FF
