:020000040800F2
:10000000700600206901000829020008210200088A
:100010002502000819020008B902000800000000CB
:100020000000000000000000000000005502000871
:100030001D020008000000005102000859020008DB
:100040008301000883010008830100088301000880
:100050008301000883010008830100088301000870
:1000600000000000830100088301000883010008EC
:1000700083010008830100088301000800000000DC
:1000800083010008830100080000000083010008CC
:100090008301000883010008830100088301000830
:1000A0008301000883010008830100088301000820
:1000B00083010008000000000000000000000000B4
:1000C00083010008000000008301000800F002F82E
:1000D00000F03AF80AA090E8000C82448344AAF1A8
:1000E0000107DA4501D100F02FF8AFF2090EBAE8A6
:1000F0000F0013F0010F18BFFB1A43F0010318475C
:10010000400F0000600F0000103A24BF78C878C18B
:10011000FAD8520724BF30C830C144BF04680C600D
:10012000704700000023002400250026103A28BF55
:1001300078C1FBD8520728BF30C148BF0B60704759
:100140001FB51FBD10B510BD00F033F81146FFF705
:10015000F7FF00F013FB00F051F803B4FFF7F2FFD4
:1001600003BC00F0CDF8000009488047094800476B
:10017000FEE7FEE7FEE7FEE7FEE7FEE7FEE7FEE757
:10018000FEE7FEE704480549054A064B70470000B4
:100190005D020008CD0000087000002070060020FD
:1001A000700200207002002070477047704770474F
:1001B0007047754600F02CF8AE4605006946534678
:1001C00020F00700854618B020B5FFF7DBFFBDE83B
:1001D00020404FF000064FF000074FF000084FF0AE
:1001E000000BAC46ACE8C009ACE8C009ACE8C009FB
:1001F000ACE8C00921F007018D46704710B50446F0
:10020000AFF300802046BDE81040FFF7A6BF000016
:100210000048704708000020FEE70000704700001B
:10022000FEE70000FEE700007047000000F0070056
:1002300080F00702042A28BF04224FF0FF3303385E
:1002400003FA02F238BF0020914301FA00F0704730
:1002500070470000704700007047000041F2000046
:10026000C4F20200016841F00101016001688907E0
:10027000FCD5416821F00301416000BF416811F0E5
:100280000C0FFBD101684FF6FF72CFF6F2621140FE
:1002900001600021416041F61071C1624FF480118C
:1002A00001634FF41F0181604EF60850CEF200004A
:1002B0004FF0006101607047FEE700004EF60C5001
:1002C000CEF200000068C0F3022070474EF61452D0
:1002D000090100F00F00CEF20002815470470000C7
:1002E0004EF60C51CEF200010A684FF6FF031A4099
:1002F00060F30A2242F0806040F0FD7008607047B1
:100300007047000041F20401C4F202010A6800F0E3
:100310000F0022F0F00242EA00100860704700006F
:1003200041F20401C4F202010A6800F0070022F45D
:10033000E06242EA002008607047000041F20401D8
:10034000C4F202010A6800F0070022F4605242EA97
:10035000C02008607047000041F25401C4F202015D
:100360000A68012822F0300208BF30320A60704764
:10037000042888BF7047DFE800F0030C19262F001F
:1003800041F20000C4F20200026861F30002026060
:10039000704741F20000C4F20200026801F001015E
:1003A00022F4803242EA01410160704741F20000CC
:1003B000C4F20200026801F0010122F0807242EAF8
:1003C00001610160704741F20000C4F20200026A5C
:1003D00061F300020262704741F20000C4F20200C1
:1003E000426A61F3000242627047000070B541F258
:1003F000040541F200260446C4F20205C0F27A0662
:1004000000F036F902280CD000284ED1286D800566
:100410004BD5E86A800144BF46F60046C0F2DC26B0
:1004200043E02868A96AC0F30040002919D429686C
:100430002A68C1F38341C2F3417213010133002AD8
:100440001A4608BF02220F2908BF1A46002802EBED
:1004500001001FD140F60011C0F23D0100FB01F682
:1004600023E0AA6AAB6AC2F3031CAA6A40F6001131
:10047000C0F23D01C3F30823002802F0070003D0B7
:100480002A68920358BF314659430CFA00F0B1FB79
:10049000F0F60AE02968890301D4464305E040F6F6
:1004A0000011C0F23D0100FB01F62660286812A190
:1004B000C0F30310085C216813A221FA00F0606009
:1004C0002968C1F30221515C20FA01F1E160296839
:1004D000C1F3C221515C0422C840A06029682B6886
:1004E00002EA9161C3F38132114409A2515CB0FB6D
:1004F000F1F0206170BD00BF0000000000000000AE
:1005000001020304060708090000000001020304B9
:1005100002040608020C081041F20002010CC4F2A9
:100520000202895800F01F0021FA00F000F00100DB
:100530007047000041F2000200F01F034FF0010C71
:10054000C4F2020201290CFA03F14FEA1040835869
:1005500014BF23EA010119438150704741F204029C
:10056000C4F20202136860B143F48033136013686D
:10057000012811D123F40030106001204FF0000C4D
:1005800010E023F480301060D06A4FF0010C40F08E
:100590000070D062002005E043F4003010600020BD
:1005A0004FF0010C1368002861F3954318BF4FF01A
:1005B000007013601368C1F3021161F35E730146AA
:1005C00018BF4FF080711360936ABCF1000F08BF31
:1005D000014623F0E060BCF1000F08BF08439062C1
:1005E0007047000041F20000C4F20200016841F0CF
:1005F0000101016001688907FCD5416821F0030110
:10060000416000BF416811F00C0FFBD101684FF64B
:10061000FF72CFF6F262114001600021416041F6A5
:100620001071C1624FF4801101634FF41F018160AA
:100630007047000041F20401C4F202010A6860F34D
:1006400001020A6000BF00BF00BF00BF00BF00BFC3
:1006500000BF00BF00BF00BF00BF00BF00BF00BFA2
:1006600000BF00BF00BF00BF00BF00BF7047000059
:1006700041F20400C4F202000068C0F38100704738
:1006800040F268024EF2180CC2F20002CEF2000CE8
:100690001368DCF800105843DCF800300A46994231
:1006A00038BF02F18072D21A8242F5D3704700003F
:1006B00081627047816170474FF6FF714FF0807221
:1006C000C0E90012704700002DE9F0410A88002AB5
:1006D00008BFBDE8F0814FF000084FF0030C4FF069
:1006E000010E0024002508E0B8EB520F4FEA520239
:1006F00005F1010504F1020426D0D607F4D00668FE
:100700000CFA04F7BE4306608E790368A6403343B3
:10071000036043680EFA05F6B34343600B794668FD
:10072000AB40334343608368BB438360CB798668C7
:10073000A34033438360C368BB43C3604B79C6683F
:10074000A3403343C360CFE7BDE8F08110B51C235D
:1007500003EA810E24234FF00F0C11F0F80F08BFAD
:100760002023C4580CFA0EF124EA0101C150C158EB
:1007700002FA0EF21143C15010BD000082B000F029
:10078000BDFB00F0A7FB00F059FB00F0FFFB00F001
:1007900021FC00F027FB00F0C7F8002000F080F8F3
:1007A0004FF4784C0020002114221423CDF800C00F
:1007B00000F090F84FF4FC6C142014212822282318
:1007C000CDF800C000F086F84FF01F0C282028213B
:1007D0003C223C23CDF800C000F07CF84FF6E07CD2
:1007E0003C203C2150225023CDF800C000F072F88C
:1007F000FEE7000080B5FFF773FD80BDB0B504468D
:100800004FF090400221FFF753FF00250FE000BF9B
:100810004FF090402021FFF74BFF4FF09040102108
:10082000FFF748FF6400072D05F101050ED24FF0D8
:1008300090401021FFF73CFF60B2B0F1FF3FE7DCD2
:100840004FF090402021FFF735FFE6E74FF0904052
:100850000221FFF72FFFB0BDF0B581B007462A2077
:100860001C4615460E4600F069F907F11A0080B2E1
:1008700000F070F905F11A0080B200F06BF92B203E
:1008800000F05CF9701C80B200F064F9601C80B26A
:1008900000F060F92C2000F051F901B0F0BD00002B
:1008A00070B50446002000214F229F230025FFF74A
:1008B000D3FF00BF002600BF204600F04BF99F2E5B
:1008C00006F10106F8D34F2D05F1010528BF70BDD3
:1008D000F0E700002DE9F04381B00E46111A4F1CDD
:1008E00031461D46FFF7B8FF380419D0A81B089CF5
:1008F000013000254FEA00481FFA87F986B203E06D
:100900000135A8B248450BD2B8F1000FF8D0002746
:10091000204600F01FF90137B8B2B042F8D3EFE734
:1009200001B0BDE8F083000080B500F009F84FF099
:1009300090400121FFF7BEFE00F014F880BD0000DA
:1009400080B54FF090400421FFF7B2FE642000F024
:1009500031FA4FF090400421FFF7ACFE782000F010
:1009600029FA80BD80B5112000F0E8F8782000F069
:1009700021FAB12000F0E2F8052000F0F5F83C2063
:1009800000F0F2F83C2000F0EFF8B22000F0D6F8CA
:10099000052000F0E9F83C2000F0E6F83C2000F0EB
:1009A000E3F8B32000F0CAF8052000F0DDF83C20A1
:1009B00000F0DAF83C2000F0D7F8052000F0D4F879
:1009C0003C2000F0D1F83C2000F0CEF8B42000F03C
:1009D000B5F8032000F0C8F8C02000F0AFF8AB2055
:1009E00000F0C2F80B2000F0BFF8042000F0BCF8C3
:1009F000C12000F0A3F8C52000F0B6F8C22000F036
:100A00009DF80D2000F0B0F8002000F0ADF8C320F4
:100A100000F094F88D2000F0A7F86A2000F0A4F808
:100A2000C42000F08BF88D2000F09EF8EE2000F03E
:100A30009BF8C52000F082F80F2000F095F8E02028
:100A400000F07CF8072000F08FF80E2000F08CF802
:100A5000082000F089F8072000F086F8102000F048
:100A600083F8072000F080F8022000F07DF80720CE
:100A700000F07AF8092000F077F80F2000F074F801
:100A8000252000F071F8362000F06EF8002000F00C
:100A90006BF8082000F068F8042000F065F81020DA
:100AA00000F062F8E12000F049F80A2000F05CF85C
:100AB0000D2000F059F8082000F056F8072000F04B
:100AC00053F80F2000F050F8072000F04DF80220F6
:100AD00000F04AF8072000F047F8092000F044F839
:100AE0000F2000F041F8252000F03EF8352000F0FE
:100AF0003BF8002000F038F8092000F035F8042019
:100B000000F032F8102000F02FF8FC2000F016F86A
:100B1000802000F029F83A2000F010F8052000F0BD
:100B200023F8362000F00AF8082000F01DF82020F5
:100B300000F004F8292000F001F880BD10B504464B
:100B40004FF090400821FFF7B3FD2046FFF756FE17
:100B500010BD000010B50446000A00F005F8E0B230
:100B600000F002F810BD000010B504464FF09040B0
:100B70000821FFF79FFD2046FFF740FE10BD000053
:100B8000B0B541F2040441F20025C4F20204C0F2FF
:100B90007A05FFF76DFD02280CD000284ED1206D9C
:100BA00080054BD5E06A800144BF46F60045C0F29F
:100BB000DC2543E02068A16AC0F30040002919D475
:100BC00021682268C1F38341C2F3417213010133EA
:100BD000002A1A4608BF02220F2908BF1A46002819
:100BE00002EB01001FD140F60011C0F23D0100FBF5
:100BF00001F523E0A26AA36AC2F3031CA26A40F6CD
:100C00000011C0F23D01C3F30823002802F00700E1
:100C100003D02268920358BF294659430CFA00F0CA
:100C2000B1FBF0F50AE02168890301D4454305E0F2
:100C300040F60011C0F23D0100FB01F540F200005A
:100C4000C2F200000560216804A2C1F30311515CE7
:100C5000026822FA01F10160B0BD00BF000000008F
:100C60000000000001020304060708094EF210010B
:100C7000CEF200010A68042822F0040208BF043200
:100C80000A607047C26801F0010122F4005242EA92
:100C90004131C16070470000032988BF7047DFE819
:100CA00001F00213060A416921F480710FE04169E5
:100CB00021F4807102E0416941F480714161416930
:100CC00041F4007141617047416941F480714161B3
:100CD000416921F400714161704700002DE9F04144
:100CE00086B001AD04462846984616460F46FFF7E3
:100CF0007DFB43F6000105F10C00C4F201018C42BA
:100D000008BF05F1080000684CF6CD4100EB8000FB
:100D10004000B0FBF7F0CCF6CC41A0FB0112D108AB
:100D200001EB8103A0EB43000428A0684FF001030E
:100D300088BF03EBD201C1EA0000A060E06806F0C2
:100D4000010120F4805040EA0130E060206908F0A1
:100D5000030120F4405040EA0130206106B0BDE8B4
:100D6000F081000002290DD001290FD0002918BF01
:100D70007047C16821F40071C160C16821F48061CD
:100D8000C1607047C16841F4007102E0C16821F49C
:100D90000071C160C16841F48061C16070470000AA
:100DA000C26801F0010122F0080242EAC101C160FB
:100DB00070470000B0B5002808BFB0BD04464FF42E
:100DC0007A7505E004FB05F0FFF75AFC002444B1F6
:100DD000332CF7D34CF25030FFF752FC323C002C4E
:100DE000F6D1B0BD2DE9F04182B06C462046FFF748
:100DF00063FC40F60005C4F6000528464FF4005198
:100E00004FF40058FFF754FC4FF090403F213F272C
:100E1000FFF74EFC0026C0F2012628462146CDE908
:100E20000086FFF751FC4FF090402146CDE9007657
:100E3000FFF74AFC02B0BDE8F081000080B5032056
:100E4000FFF7D8FCFFF73AFA0021FFF7EFF9014668
:100E50006FF00B00FFF73AFAFFF730FA0021FFF7C7
:100E6000E5F901466FF00A00FFF730FAFFF726FABE
:100E70000021FFF7DBF901466FF00900FFF726FAC2
:100E8000FFF71CFA0021FFF7D1F901466FF00400CB
:100E9000FFF71CFAFFF712FA0021FFF7C7F9014626
:100EA0006FF00300FFF712FAFFF708FA0021FFF7CF
:100EB000BDF901466FF00100FFF708FAFFF7FEF9F0
:100EC0000F21FFF7B3F901464FF0FF30FFF7FEF9AE
:100ED00080BD000010B51124C0F214042046012189
:100EE000FFF728FBA01C0121FFF724FB0E20C0F216
:100EF00018000121FFF71EFB10BD000010B5FFF721
:100F000071FB42F20000C4F2020040F25311016092
:100F100004200121FFF72CFA0124C0F2240400BFB1
:100F20002046FFF7F9FA0128FAD100200121FFF746
:100F30001FFA00BF0120FFF7EFFA0128FAD10020C5
:100F40001D21FFF70BFB02200121FFF711FA00BF63
:100F50001920FFF7E1FA0128FAD10020FFF7D2F9B2
:100F60000020FFF7EBF90020FFF7DAF90120FFF787
:100F7000F3F90220FFF75EFBFFF77AFB0228FBD1B3
:100F80000020FFF7E9F9FFF7FBFD10BDB0B586B013
:100F900001A8FFF72BFA029C00200025FFF766FE50
:100FA0004DF68360C4F21B30A4FB0001480D40F2F3
:100FB0006801C2F2000108604EF21000CEF200009B
:100FC0006FF07F4185604160016841F0010101607F
:100FD00006B0B0BD10B582B06C462046FFF76CFB82
:100FE0004FF0904009210122FFF7B0FB0020C0F232
:100FF000022001904FF4007000904FF09040214685
:10100000FFF762FB43F60004C4F2010420464FF4EC
:10101000E13100220023FFF761FE20460121FFF7A6
:10102000BFFE20460021FFF79DFE20460021FFF76E
:1010300033FE20460121FFF725FE02B010BD00005F
:1010400060100008000000200800000008010008EF
:10105000681000080800002068060000240100084D
:0810600000127A0000000000FC
:04000005080000CD22
:00000001FF
