:020000040800F2
:100000007006002069010008B10300082102000801
:10001000AD030008190200084104000800000000B8
:10002000000000000000000000000000DD030008E8
:100030001D02000800000000D9030008E1030008C9
:100040008301000883010008830100088301000880
:100050008301000883010008830100088301000870
:1000600000000000830100088301000883010008EC
:1000700083010008830100088301000800000000DC
:1000800083010008830100080000000083010008CC
:100090008301000883010008830100088301000830
:1000A0008301000883010008830100088301000820
:1000B00083010008000000000000000000000000B4
:1000C00083010008000000008301000800F002F82E
:1000D00000F03AF80AA090E8000C82448344AAF1A8
:1000E0000107DA4501D100F02FF8AFF2090EBAE8A6
:1000F0000F0013F0010F18BFFB1A43F0010318475C
:10010000484C0000684C0000103A24BF78C878C101
:10011000FAD8520724BF30C830C144BF04680C600D
:10012000704700000023002400250026103A28BF55
:1001300078C1FBD8520728BF30C148BF0B60704759
:100140001FB51FBD10B510BD00F033F81146FFF705
:10015000F7FF00F0D7FB00F051F803B4FFF7F2FF10
:1001600003BC00F091F900000948804709480047A6
:10017000FEE7FEE7FEE7FEE7FEE7FEE7FEE7FEE757
:10018000FEE7FEE704480549054A064B70470000B4
:10019000E5030008CD000008700000207006002074
:1001A000700200207002002070477047704770474F
:1001B0007047754600F02CF8AE4605006946534678
:1001C00020F00700854618B020B5FFF7DBFFBDE83B
:1001D00020404FF000064FF000074FF000084FF0AE
:1001E000000BAC46ACE8C009ACE8C009ACE8C009FB
:1001F000ACE8C00921F007018D46704710B50446F0
:10020000AFF300802046BDE81040FFF7A6BF000016
:100210000048704708000020FEE70000704700001B
:10022000FEE700002DE9F04F87B0002B0591069006
:100230005ED0DDF848B00021C4F2C82110461D464A
:100240004FEA5B0601F0BAFA01F09CFA4FF00009A0
:10025000049030E010FB0670109F0599B246CDE97E
:10026000004B80B214462E223B460026029600F038
:1002700001FC224609F101090135D00800EB80009C
:10028000069AA8EB40005FFA89F111FB0A2140F0C1
:1002900030021198D2B2CDE9000B88B205993B46E5
:1002A000029600F0E7FB09F101095FFA89F0E9B273
:1002B000814256461CD96FEA09002844119C069FCA
:1002C000C0B25FFA89FA00F05FFB0499B1FBF0F865
:1002D0006FF001004CF6CD4150FA85F0CCF6CC41E0
:1002E0005045A8FB0112B5D0109FB2460026C4E7C6
:1002F00007B0BDE8F08F00002DE9F04F87B0002B6C
:10030000CDE905124ED0074612981C464508581EE6
:100310004FF000084FF000094FF0000A4FF0000BBB
:10032000049018E04FF0010B40F03002119808EBF8
:10033000070100901298D2B2019088B20599109BE3
:100340000026029600F096FB09F101090AF1010A64
:100350004C45A84426D06FEA0A002044C0B200F001
:1003600013FB0699BBF1000FB1FBF0F04CF6CD4149
:10037000CCF6CC41A0FB01124FEAD20101EB810186
:10038000A0EB4100D0D104994945CDDD0028C9D169
:10039000119908EB07000091129980B2019105991B
:1003A0002022CCE707B0BDE8F08F0000FEE7000098
:1003B0007047000000F0070080F00702042A28BF01
:1003C00004224FF0FF33033803FA02F238BF002053
:1003D000914301FA00F07047704700007047000039
:1003E0007047000041F20000C4F20200016841F0D1
:1003F0000101016001688907FCD5416821F0030112
:10040000416000BF416811F00C0FFBD101684FF64D
:10041000FF72CFF6F262114001600021416041F6A7
:100420001071C1624FF4801101634FF41F018160AC
:100430004EF60850CEF200004FF0006101607047A8
:10044000FEE700004EF60C50CEF200000068C0F34C
:10045000022070474EF61452090100F00F00CEF250
:1004600000028154704700004EF60C51CEF200019C
:100470000A684FF6FF031A4060F30A2242F08060D8
:1004800040F0FD70086070477047000041F20401C1
:10049000C4F202010A6800F00F0022F0F00242EA02
:1004A000001008607047000041F20401C4F202012C
:1004B0000A6800F0070022F4E06242EA00200860C7
:1004C0007047000041F20401C4F202010A6800F022
:1004D000070022F4605242EAC02008607047000022
:1004E00041F25401C4F202010A68012822F03002EC
:1004F00008BF30320A607047042888BF7047DFE8C1
:1005000000F0030C19262F0041F20000C4F2020093
:10051000026861F300020260704741F20000C4F219
:100520000200026801F0010122F4803242EA014136
:100530000160704741F20000C4F20200026801F05D
:10054000010122F0807242EA01610160704741F2CC
:100550000000C4F20200026A61F300020262704706
:1005600041F20000C4F20200426A61F300024262FA
:100570007047000070B541F2040541F200260446C0
:10058000C4F20205C0F27A0600F036F902280CD057
:1005900000284ED1286D80054BD5E86A800144BF04
:1005A00046F60046C0F2DC2643E02868A96AC0F39C
:1005B0000040002919D429682A68C1F38341C2F395
:1005C000417213010133002A1A4608BF02220F2983
:1005D00008BF1A46002802EB01001FD140F60011A7
:1005E000C0F23D0100FB01F623E0AA6AAB6AC2F348
:1005F000031CAA6A40F60011C0F23D01C3F30823B0
:10060000002802F0070003D02A68920358BF314641
:1006100059430CFA00F0B1FBF0F60AE029688903AF
:1006200001D4464305E040F60011C0F23D0100FB55
:1006300001F62660286812A1C0F30310085C216847
:1006400013A221FA00F060602968C1F30221515C15
:1006500020FA01F1E1602968C1F3C221515C042252
:10066000C840A06029682B6802EA9161C3F3813217
:10067000114409A2515CB0FBF1F0206170BD00BFD4
:100680000000000000000000010203040607080942
:10069000000000000102030402040608020C081016
:1006A00041F20002010CC4F20202895800F01F005E
:1006B00021FA00F000F001007047000041F2000252
:1006C00000F01F034FF0010CC4F2020201290CFAE2
:1006D00003F14FEA1040835814BF23EA0101194384
:1006E0008150704741F20402C4F20202136860B103
:1006F00043F4803313601368012811D123F40030D0
:10070000106001204FF0000C10E023F480301060E6
:10071000D06A4FF0010C40F00070D062002005E07C
:1007200043F40030106000204FF0010C13680028E3
:1007300061F3954318BF4FF0007013601368C1F365
:10074000021161F35E73014618BF4FF080711360B0
:10075000936ABCF1000F08BF014623F0E060BCF1D2
:10076000000F08BF084390627047000041F200008C
:10077000C4F20200016841F00101016001688907CB
:10078000FCD5416821F00301416000BF416811F0D0
:100790000C0FFBD101684FF6FF72CFF6F2621140E9
:1007A00001600021416041F61071C1624FF4801177
:1007B00001634FF41F0181607047000041F20401A2
:1007C000C4F202010A6860F301020A6000BF00BFC0
:1007D00000BF00BF00BF00BF00BF00BF00BF00BF21
:1007E00000BF00BF00BF00BF00BF00BF00BF00BF11
:1007F00000BF00BF7047000041F20400C4F20200D5
:100800000068C0F38100704740F268024EF2180C95
:10081000C2F20002CEF2000C1368DCF8001058435C
:10082000DCF800300A46994238BF02F18072D21AD1
:100830008242F5D370470000816270478161704742
:100840004FF6FF714FF08072C0E900127047000050
:100850002DE9F0410A88002A08BFBDE8F0814FF079
:1008600000084FF0030C4FF0010E0024002508E0B3
:10087000B8EB520F4FEA520205F1010504F10204F0
:1008800026D0D607F4D006680CFA04F7BE430660FB
:100890008E790368A6403343036043680EFA05F679
:1008A000B34343600B794668AB403343436083688E
:1008B000BB438360CB798668A34033438360C368BE
:1008C000BB43C3604B79C668A3403343C360CFE7E3
:1008D000BDE8F08110B51C2303EA810E24234FF0FC
:1008E0000F0C11F0F80F08BF2023C4580CFA0EF1BA
:1008F00024EA0101C150C15802FA0EF21143C1505D
:1009000010BD000084B04FF6FF7800F051FC00F0FD
:100910003BFC00F0EDFB00F093FC00F0B5FC00F0B8
:10092000BBFB00F05BF900204FF0000900F088F8F5
:10093000202700203C2143F239020523CDE900891C
:100940000297FFF7D9FC45F6294442F6F505CCF2AB
:100950008F24C3F6BC7500260A203C2132460423AE
:10096000CDE900890297FFF75DFC304600F0DEFE1E
:1009700022462B4600F0F0FC00F0BCFC06464FF48B
:10098000FA7000F071FBE7E7012130B1013801EBAB
:10099000810102064FEA4101F8D108467047000084
:1009A00080B5FFF761FD80BDB0B504464FF09040C3
:1009B0000221FFF741FF00250FE000BF4FF09040FC
:1009C0002021FFF739FF4FF090401021FFF736FF4D
:1009D0006400072D05F101050ED24FF09040102163
:1009E000FFF72AFF60B2B0F1FF3FE7DC4FF0904025
:1009F0002021FFF723FFE6E74FF090400221FFF7A9
:100A00001DFFB0BDF0B581B007462A201C46154633
:100A10000E4600F0EDF9384600F0F6F9284600F0F1
:100A2000F3F92B2000F0E4F9304600F0EDF9204610
:100A300000F0EAF92C2000F0DBF901B0F0BD000075
:100A400070B50446002000214F229F230025FFF7A8
:100A5000D9FF00BF002600BF204600F0D5F99F2E29
:100A600006F10106F8D34F2D05F1010528BF70BD31
:100A7000F0E700002DE9F04F87B0DDF844808146B3
:100A80004FEA58074FEA18101C46924601237A078E
:100A900018BF03EB181000FB08F609EB580001EB38
:100AA00008020138531E82B29BB248460D46069199
:100AB000FFF7A8FF002E049600F08280A8F10C0139
:100AC000CAB2890141EA9201AAF12000CBB241F6F3
:100AD000C851C2B2C0F6000101EB0211019143F20C
:100AE0008851129DC0F600010020029201EB821194
:100AF0004E4600224FF0000A0091039309E04FF0A8
:100B0000000A00BF059A04990132039B90B281420A
:100B100056D9052B54D80592DFE803F0030E521086
:100B2000521A029941F6541201EB4101C0F600023B
:100B300002EB81010DE000BF01990AE0029942F247
:100B4000B83201EB4101C0F6000202EB011100E0F6
:100B50000099084490F800B04FF0000817E000BF7B
:100B600010EA0B0F2046109908BF084600F04CF918
:100B70000AF1010A5FFA8AF0B0FBF7F101FB1700F6
:100B80000028BCD008F10108B8F1080FBAD0012044
:100B9000002D00FA08F0E3D010EA0B0F05D00699FB
:100BA000B0B289B2224600F00FF80136B0B2A0EB25
:100BB0000900B842E6D106984E4601300690A1E7FA
:100BC00007B0BDE8F08F000010B5144602460B4692
:100BD000FFF718FF204600F017F910BD80B500F0B0
:100BE00009F84FF090400121FFF728FE00F014F8BB
:100BF00080BD000080B54FF090400421FFF71CFE3F
:100C0000642000F031FA4FF090400421FFF716FE07
:100C1000782000F029FA80BD80B5112000F0E8F8B6
:100C2000782000F021FAB12000F0E2F8052000F071
:100C3000F5F83C2000F0F2F83C2000F0EFF8B2208C
:100C400000F0D6F8052000F0E9F83C2000F0E6F8C6
:100C50003C2000F0E3F8B32000F0CAF8052000F0D3
:100C6000DDF83C2000F0DAF83C2000F0D7F8052051
:100C700000F0D4F83C2000F0D1F83C2000F0CEF891
:100C8000B42000F0B5F8032000F0C8F8C02000F050
:100C9000AFF8AB2000F0C2F80B2000F0BFF8042042
:100CA00000F0BCF8C12000F0A3F8C52000F0B6F8B1
:100CB000C22000F09DF80D2000F0B0F8002000F0F8
:100CC000ADF8C32000F094F88D2000F0A7F86A205A
:100CD00000F0A4F8C42000F08BF88D2000F09EF8FE
:100CE000EE2000F09BF8C52000F082F80F2000F005
:100CF00095F8E02000F07CF8072000F08FF80E2037
:100D000000F08CF8082000F089F8072000F086F841
:100D1000102000F083F8072000F080F8022000F097
:100D20007DF8072000F07AF8092000F077F80F200E
:100D300000F074F8252000F071F8362000F06EF80D
:100D4000002000F06BF8082000F068F8042000F0A4
:100D500065F8102000F062F8E12000F049F80A2060
:100D600000F05CF80D2000F059F8082000F056F86B
:100D7000072000F053F80F2000F050F8072000F093
:100D80004DF8022000F04AF8072000F047F809204B
:100D900000F044F80F2000F041F8252000F03EF864
:100DA000352000F03BF8002000F038F8092000F072
:100DB00035F8042000F032F8102000F02FF8FC2065
:100DC00000F016F8802000F029F83A2000F010F822
:100DD000052000F023F8362000F00AF8A82000F0E3
:100DE0001DF8202000F004F8292000F001F880BD53
:100DF00010B504464FF090400821FFF71DFD204636
:100E0000FFF7D2FD10BD000010B50446000A00F047
:100E100005F8E0B200F002F810BD000010B504467D
:100E20004FF090400821FFF709FD2046FFF7BCFD79
:100E300010BD0000B0B541F2040441F20025C4F237
:100E40000204C0F27A05FFF7D7FC02280CD0002874
:100E50004ED1206D80054BD5E06A800144BF46F637
:100E60000045C0F2DC2543E02068A16AC0F30040E1
:100E7000002919D421682268C1F38341C2F3417269
:100E800013010133002A1A4608BF02220F2908BFA6
:100E90001A46002802EB01001FD140F60011C0F2F3
:100EA0003D0100FB01F523E0A26AA36AC2F3031C23
:100EB000A26A40F60011C0F23D01C3F308230028E6
:100EC00002F0070003D02268920358BF2946594315
:100ED0000CFA00F0B1FBF0F50AE02168890301D4B7
:100EE000454305E040F60011C0F23D0100FB01F56D
:100EF00040F20000C2F200000560216804A2C1F3C4
:100F00000311515C026822FA01F10160B0BD00BF1B
:100F100000000000000000000102030406070809A9
:100F20004EF21001CEF200010A68042822F00402F9
:100F300008BF04320A607047C26801F0010122F460
:100F4000005242EA4131C16070470000032988BF66
:100F50007047DFE801F00213060A416921F480714D
:100F60000FE0416921F4807102E0416941F4807130
:100F70004161416941F4007141617047416941F447
:100F800080714161416921F4007141617047000045
:100F90002DE9F04186B001AD044628469846164634
:100FA0000F46FFF7E7FA43F6000105F10C00C4F223
:100FB00001018C4208BF05F1080000684CF6CD41E4
:100FC00000EB80004000B0FBF7F0CCF6CC41A0FB7A
:100FD0000112D10801EB8103A0EB43000428A068B3
:100FE0004FF0010388BF03EBD201C1EA0000A0600B
:100FF000E06806F0010120F4805040EA0130E06032
:10100000206908F0030120F4405040EA01302061DB
:1010100006B0BDE8F081000002290DD001290FD0F3
:10102000002918BF7047C16821F40071C160C16810
:1010300021F48061C1607047C16841F4007102E031
:10104000C16821F40071C160C16841F48061C16070
:1010500070470000C26801F0010122F0080242EA74
:10106000C101C16070470000B0B5002808BFB0BD25
:1010700004464FF47A7505E004FB05F0FFF7C4FB66
:10108000002444B1332CF7D34CF25030FFF7BCFBB3
:10109000323C002CF6D1B0BD2DE9F04182B06C4657
:1010A0002046FFF7CDFB40F60005C4F600052846B4
:1010B0004FF400514FF40058FFF7BEFB4FF0904043
:1010C0003F213F27FFF7B8FB0026C0F20126284644
:1010D0002146CDE90086FFF7BBFB4FF0904021464B
:1010E000CDE90076FFF7B4FB02B0BDE8F081000067
:1010F00080B50320FFF754FCFFF7A4F90021FFF7A8
:1011000059F901466FF00B00FFF7A4F9FFF79AF9C0
:101110000021FFF74FF901466FF00A00FFF79AF937
:10112000FFF790F90021FFF745F901466FF009003C
:10113000FFF790F9FFF786F90021FFF73BF9014629
:101140006FF00400FFF786F9FFF77CF90021FFF745
:1011500031F901466FF00300FFF77CF9FFF772F9F0
:101160000021FFF727F901466FF00100FFF772F940
:10117000FFF768F90F21FFF71DF901464FF0FF3027
:10118000FFF768F980BD000010B51124C0F2140407
:1011900020460121FFF792FAA01C0121FFF78EFAE9
:1011A0000E20C0F218000121FFF788FA10BD0000E0
:1011B00010B5FFF7DBFA42F20000C4F2020040F281
:1011C0005311016004200121FFF796F90124C0F2B8
:1011D000240400BF2046FFF763FA0128FAD100205B
:1011E0000121FFF789F900BF0120FFF759FA012813
:1011F000FAD100201D21FFF775FA02200121FFF727
:101200007BF900BF1920FFF74BFA0128FAD1002023
:10121000FFF73CF90020FFF755F90020FFF744F9EC
:101220000120FFF75DF90220FFF7C8FAFFF7E4FAA3
:101230000228FBD10020FFF753F9FFF7FBFD10BD9B
:10124000B0B586B001A8FFF795F9029C00200025F3
:10125000FFF766FE4DF68360C4F21B30A4FB00016D
:10126000480D40F26801C2F2000108604EF2100021
:10127000CEF200006FF07F4185604160016841F06F
:101280000101016006B0B0BD10B582B06C462046C9
:10129000FFF7D6FA4FF0904009210122FFF71AFB21
:1012A0000020C0F2022001904FF4007000904FF037
:1012B00090402146FFF7CCFA43F60004C4F2010443
:1012C00020464FF4E13100220023FFF761FE204663
:1012D0000121FFF7BFFE20460021FFF79DFE2046BB
:1012E0000021FFF733FE20460121FFF725FE02B063
:1012F00010BD000021F0004201F00043A2F1605255
:10130000B2F5801F28BFD2F17F6C0BD95FEA001CB9
:1013100043EAC20242EB507018BF704728BF20F06A
:1013200001007047B2F5801FBCBF184670474FEAF6
:10133000410C1CF5001F02D2084600F006BB70B538
:1013400000F0B2F800000089FFF7F6BF4FF0004050
:10135000A0F580007047000010B591EA030F48BF68
:1013600083F0004300F1FC80841A71EB030C05D27A
:10137000121943EB0C03001B61EB0C014FEA1154F3
:10138000A4EB135CDFF81CE11EEA430F18BF9EEAD2
:10139000445F00F0748021EA045123EA0E0343F411
:1013A0008013DCF1200E32D322FA0CFE10EB0E007B
:1013B00023FA0CFE41EB0E01CCF1200E03FA0EFED7
:1013C00010EB0E00CCF1200E51F10001B1F5801FA1
:1013D00032D201EB045112FA0EF2BDE8104058BFB0
:1013E0007047401C38BF5FEA420218BF70470028B0
:1013F00014BF20F0010041F100014FEA410313F551
:10140000001F38BF7047A1F1C04100F09BB8012A0E
:1014100043EB0302ACF1200CDCF11F0E32BF4FF0A6
:10142000000E23FA0CF310EB030041EB0451B4EB74
:10143000115FD0D0A1EB045101F58011490801EBF7
:1014400004515FEA30000ED350F1000038BF12FAA9
:101450000EFE08D1BDE81040C9E7401C38BF5FEA66
:101460004202CAD1C3E7BDE810404FEA410313F579
:10147000001F38BF7047A1F1C04100F063B89EEA79
:10148000445F08D011EA5E0FBDE8104004BF01F0D0
:10149000004100207047BDE8104070B500F004F82E
:1014A00064FBBE3E0000E0FF0EF1020E2EF0030EC4
:1014B0005EF8046B364205D4012A43EB030515F5AB
:1014C000001F12D8012841EB010C1CF5001F0CD89D
:1014D0000ED14FEAD17C0CEB4C0C0CF1020C15F543
:1014E000001F08BF4CEBD37C04E04FF0080C01E078
:1014F0004FEAD37C0CEB4C0526FA05F606F00706FE
:10150000B6F1040C06D20EEB860CBDE870404CF030
:10151000010C6047DFE80CF0090B02024FF00041BC
:10152000A1F500214FF0000070BD194610460128BA
:1015300051EB010418BFD4F5001484BF002001F062
:10154000004170BD0808A0F500114FEA3101704755
:1015500010B591EA030F48BF83F000433FF504AF95
:10156000841A71EB030C07D28CF0004C121943EB78
:101570000C03001B61EB0C014FEA1154A4EB135C4C
:10158000DFF8A4E11EEA430F18BF9EEA445F00F0B3
:10159000B48021EA045123EA6E035242C3EB6E0386
:1015A00038BF5B1EDCF1200E25D322FA0CFE10EBB7
:1015B0000E0043FA0CFE41EB0E01CCF1200E03FAB3
:1015C0000EFE10EB0E00CCF1200E51F1000129D4DB
:1015D00001EB045112FA0EF2BDE8104058BF7047FB
:1015E000401C1CBFB2F1004F704700280CBF491CC3
:1015F00020F00100704712EB020E43EB030218BF0C
:101600004FF0010E4EEA4202ACF1200CDCF11E0E4E
:1016100056D943FA0CFE10EB0E00CCF11E0E51F120
:10162000FF31D5D50EF1010E12FA0EFE404141EB0D
:10163000010101EB445C5FEA5C5C10D901EB0451F1
:1016400010EBDE7038BFBEF1004FBDE8104018BF90
:10165000704700280CBF491C20F00100704734D2AD
:101660004FEAD42C24F4006411F500111BD0B1FA18
:1016700081F20B3AA41AA41ED2F12003914030FA51
:1016800003F31943904001EBCC7101EB0451002CA2
:10169000BDE81040A8BF704701F1C04101F0004112
:1016A0004FF000007047B0FA80F310FA03F102D156
:1016B000BDE810407047E41A173C4805C90AE2E744
:1016C00001EB0451BDE81040704749104FEA30006B
:1016D00001EB0451BDE8104002E04FF000017047FB
:1016E0004A0008BF0042F8D0B2F5001F28BF70477B
:1016F00001F000414FF0000070479EEA445F07D0C0
:1017000011EA5E0FBDE8104004BF002100207047C1
:10171000BDE8104070B5FFF7C7FE00BF40DFF63EE2
:10172000104683F0004170470000E0FF43004FEA9D
:10173000D30C4FEA3C0C43401FBF40070CF16051F3
:1017400013F0FE4F70471CF0006F03D10CF0004106
:10175000002070470CF0004343EA507040EACC0090
:1017600010B500F0ACF800BF000000924FEA000195
:10177000FFF7E8BE4FF00041A1F500214FF0000057
:101780007047000041000B0ED3F19E0208D950F4BF
:1017900000034FEA032323FA02F048BF4042704798
:1017A00010B500F08CF800BF4992248000207047EB
:1017B0006FF0004282EA2000704700004FF47F0C77
:1017C0001CEAD0121EBF1CEAD11392EA0C0F93EA56
:1017D0000C0F00F0478090EA010F48BF42F480727E
:1017E0004FF0004C4CEA00204CEA012102EB0302CE
:1017F000A0FB0113A2F50002002918BF43F001036A
:101800005B0028BF4FEA330342EB22425FEA132C0E
:101810004CEBC2502EBFBCEB436FB2F57C0F704750
:101820004FEA036CBCF1004F08BF20F00100B2F595
:101830007C0F38BF70470BD582F0FF0212F5803F56
:10184000C8BF704700F1C040D8BF00F000407047EB
:1018500000F5000C5FEA4C0C48BF7047B0F1C04087
:1018600000F073B80CEAD11390EA010F48BF42F4BC
:101870008072624538BF634504D280EA010000F0FF
:101880000040704710B500F01AF800BF8900013E13
:1018900000F007B800F009B85FEA410C5FEA1C6C81
:1018A00008D080EA010000F050B85FEA400C5FEA1F
:1018B0001C6CF6D14FF00040A0F5800070470EF18F
:1018C000020E2EF0030E5EF8044B244204D44FEABD
:1018D0004102B2F17F4F11D84FEA4003B3F17F4F7D
:1018E0000CD80ED14FEAD07C0CEB4C0C0CF1020C56
:1018F000B2F17F4F08BF4CEBD17C04E04FF0080CF5
:1019000001E04FEAD17C0CEB4C0324FA03F404F021
:101910000704B4F1040C06D20EEB840CBDE81040B1
:101920004CF0010C6047DFE80CF0070802024FF0B2
:101930000040A0F5800010BD0846420018BFD2F15B
:10194000807288BF00F0004010BDFF2141EAD050F6
:10195000C00570470000000000000000000000000B
:1019600000000404040404000004000014140A002D
:10197000000000000000000000000A0A1F0A0A1F01
:101980000A0A000000040E1505060C14150E0400CA
:10199000000012150D152E2C2A1200000000040A5A
:1019A0000A36151529160000020201000000000089
:1019B00000000000100808040404040408081000D3
:1019C00002040408080808080404020000000004D7
:1019D000150E0E150400000000000008083E08085F
:1019E00000000000000000000000000002020100F2
:1019F00000000000003F00000000000000000000A8
:101A0000000000000002000000201010080804047C
:101A10000202010000000E1111111111110E00003F
:101A20000000040604040404040E000000000E116B
:101A300011080402011F000000000E11100C10100C
:101A4000110E00000000080C0C0A091F081C000001
:101A500000001F01010F1110110E000000000C12F8
:101A6000010D1311110E000000001E1008080404DF
:101A70000404000000000E11110E1111110E0000DF
:101A800000000E11111916100906000000000000D8
:101A9000040000000004000000000000000400003A
:101AA00000040400000010080402020408100000F2
:101AB000000000003F003F000000000000000204A2
:101AC000081010080402000000000E1111080404A0
:101AD0000004000000001C22292D2D1D221C0000E6
:101AE000000004040C0A0A1E1233000000000F124A
:101AF000120E1212120F000000001E11010101014E
:101B0000110E000000000F1212121212120F00002C
:101B100000001F120A0E0A02121F000000001F120E
:101B20000A0E0A020207000000001C12010139110E
:101B3000120C000000003312121E121212330000A9
:101B400000001F0404040404041F000000003E08F9
:101B50000808080808080907000037120A060A12D0
:101B6000123700000000070202020202223F0000BA
:101B700000003B1B1B1B15151535000000003B1218
:101B800016161A1A1217000000000E111111111169
:101B9000110E000000000F12120E020202070000D8
:101BA00000000E1111111117190E180000000F126C
:101BB000120E0A121237000000001E110106081052
:101BC000110F000000001F1504040404040E00009F
:101BD0000000331212121212120C00000000331215
:101BE000120A0A0C040400000000151515150E0A4F
:101BF0000A0A000000001B0A0A04040A0A1B00006B
:101C000000001B0A0A0A0404040E000000001F0959
:101C100008040402121F00001C0404040404040449
:101C200004041C0000020204040408080810100048
:101C30000E0808080808080808080E00040A000032
:101C40000000000000000000000000000000000094
:101C50000000003F0204000000000000000000003F
:101C600000000000000C121C123C000000030202E5
:101C7000020E1212120E000000000000001C1202E0
:101C8000120C000000181010101C1212123C000060
:101C900000000000000C121E021C000000182404AA
:101CA000041E0404041E000000000000003C120C8E
:101CB000021C221C00030202020E12121237000044
:101CC0000004040000060404040E000000080800DC
:101CD000000C08080808080700030202021A0A0696
:101CE0000A1300000007040404040404041F000095
:101CF00000000000000F1515151500000000000081
:101D0000000F12121237000000000000000C121227
:101D1000120C000000000000000F1212120E020749
:101D200000000000001C1212121C103800000000FD
:101D3000001B06020207000000000000001E020C4B
:101D4000101E000000000004041E0404041C000017
:101D500000000000001B1212123C000000000000F6
:101D6000001B0A0A04040000000000000015150E04
:101D70000A0A000000000000001B0A040A1B000001
:101D800000000000003312120C08040300000000E1
:101D9000001E0804041E000018080808080C0808A3
:101DA00008081800080808080808080808080808AB
:101DB00006040404040804040404060016090000D0
:101DC0000000000000000000000000000000000013
:101DD00000000000000000000000000808080808DB
:101DE000080800001818000000486C2412000000C9
:101DF00000000000000000000000002424247F12E6
:101E000012127F12121200000000081C2A2A0A0C6B
:101E10001828282A2A1C0808000000222515151554
:101E20002A585454542200000000000C1212120AC6
:101E300076252911916E00000006060403000000BB
:101E400000000000000000000040201010080808FA
:101E500008080810102040000002040808101010A4
:101E600010101008080402000000000008086B1C95
:101E70001C6B0808000000000000000008080808AB
:101E80007F080808080000000000000000000000B3
:101E9000000000000606040300000000000000002F
:101EA000FE00000000000000000000000000000034
:101EB00000000000060600000000804040202010C6
:101EC00010080804040202000000001824424242E4
:101ED0004242424224180000000000080E08080890
:101EE00008080808083E00000000003C424242206A
:101EF00020100804427E00000000003C42422018EE
:101F000020404042221C00000000002030282424F1
:101F100022227E20207800000000007E0202021AA9
:101F200026404042221C0000000000382402021A11
:101F300026424242241800000000007E2222101097
:101F400008080808080800000000003C424242243B
:101F500018244242423C0000000000182442424241
:101F600064584040241C00000000000000001818C5
:101F70000000000018180000000000000000000829
:101F800000000000000808040000004020100804C1
:101F900002040810204000000000000000007F0044
:101FA00000007F0000000000000000020408102074
:101FB00040201008040200000000003C424246405D
:101FC00020101000181800000000001C225A55555F
:101FD00055552D42221C000000000008081814145A
:101FE000243C224242E700000000001F2222221E61
:101FF00022424242221F00000000007C42420101B6
:1020000001010142221C00000000001F2242424246
:1020100042424242221F00000000003F4212121EB4
:1020200012120242423F00000000003F4212121E04
:1020300012120202020700000000003C22220101ED
:1020400001712122221C0000000000E742424242AE
:102050007E42424242E700000000003E08080808B5
:1020600008080808083E00000000007C101010104E
:10207000101010101010110F0000007722120A0E1D
:102080000A12122222770000000000070202020258
:1020900002020202427F0000000000773636363628
:1020A0002A2A2A2A2A6B0000000000E346464A4AF0
:1020B00052525262624700000000001C224141411E
:1020C00041414141221C00000000003F4242424287
:1020D0003E020202020700000000001C22414141B2
:1020E00041414D53321C60000000003F4242423EDD
:1020F0001212222242C700000000007C4242020469
:1021000018204042423E00000000007F49080808B5
:1021100008080808081C0000000000E7424242428C
:1021200042424242423C0000000000E74242222478
:1021300024141418080800000000006B494949499C
:102140005555362222220000000000E742242418C0
:102150001818242442E700000000007722221414FB
:1021600008080808081C00000000007E212010104C
:1021700008040442423F00000078080808080808E4
:10218000080808080808780000000202040408088B
:102190000810102020204040001E101010101010B9
:1021A0001010101010101E00003844000000000035
:1021B000000000000000000000000000000000001F
:1021C00000000000000000FF000608000000000002
:1021D0000000000000000000000000000000003CC3
:1021E0004278444242FC0000000000030202021A4E
:1021F00026424242261A000000000000000000387B
:102200004402020244380000000000604040407870
:102210004442424264D80000000000000000003C3C
:10222000427E0202423C0000000000F08808087E66
:1022300008080808083E0000000000000000007CBC
:1022400022221C023C42423C000000030202023AED
:102250004642424242E700000000000C0C00000E23
:1022600008080808083E0000000000303000003870
:10227000202020202020221E0000000302020272E3
:10228000120A1612227700000000000E0808080843
:1022900008080808083E0000000000000000007F59
:1022A0009292929292B70000000000000000003B62
:1022B0004642424242E70000000000000000003CAD
:1022C00042424242423C0000000000000000001B6D
:1022D00026424242221E0207000000000000007851
:1022E00044424242447840E0000000000000007791
:1022F0004C040404041F0000000000000000007CE7
:1023000042023C40423E0000000000000008083E3F
:102310000808080808300000000000000000006302
:102320004242424262DC000000000000000000E780
:10233000422424140808000000000000000000EB04
:102340004949555522220000000000000000007697
:1023500024181818246E000000000000000000E798
:102360004224241418080807000000000000007E22
:1023700022100808447E000000C0202020202010E9
:10238000202020202020C00010101010101010104D
:10239000101010101010101000060808080808107F
:1023A00008080808080806000C32C20000000000F7
:1023B000000000000000000000000000000000001D
:1023C000000000000000000000000000000000000D
:1023D00000000000000000000000000000000000FD
:1023E00000000000000000000000000000000000ED
:1023F00060006000600060006000600060004000FD
:1024000020002000200000000000000060006000AC
:102410006000000000000000000000006006600690
:102420003003980188004400000000000000000014
:10243000000000000000000000000000000000009C
:10244000000000000000000000000000000000008C
:102450001002100210021002FE07FE070802080117
:10246000080108010801FE07FE0704010401040138
:102470000401000000000000000000000000400017
:102480004000F00158034C03CC034C00580070008E
:10249000E000C001C00140034C035C034C03480151
:1024A000F0004000400000000000000000000000BC
:1024B0000E010A01910091009100510051003A0073
:1024C000AE03A002500450044804480448048402A7
:1024D0008403000000000000000000000000000075
:1024E00038006C006C006C006C006C002C009807CD
:1024F0001C011A01330133016301E300C308C6095B
:102500003C07000000000000000000000C001C0060
:10251000100010000800040000000000000000008F
:1025200000000000000000000000000000000000AB
:102530000000000000000000000000000004000295
:1025400000018000800040004000200020002000AA
:10255000200020002000200040004000800080007B
:10256000000100020004000000000000020004005E
:102570000800100010002000200040004000400033
:1025800040004000400040002000200010001000EB
:10259000080004000200000000000000000000002D
:1025A000000000004000C0004000460C4E0FD0016B
:1025B000F0015E0F460C40004000400000000000AB
:1025C000000000000000000000000000000000000B
:1025D00000000000000040004000400040004000BB
:1025E000FE0F40004000400040004000000000009E
:1025F00000000000000000000000000000000000DB
:1026000000000000000000000000000000000000CA
:102610000000000000000000000000000C001C0092
:10262000100010000800040000000000000000007E
:10263000000000000000000000000000000000009A
:10264000FE07000000000000000000000000000085
:10265000000000000000000000000000000000007A
:10266000000000000000000000000000000000006A
:102670000000000000000000000000001C001C0022
:102680001C00000000000000000000000004000624
:1026900000020003000100018000800040004000B3
:1026A00060002000200010001000080008000C004E
:1026B000040006000200000000000000000000000E
:1026C0000000F00098010C030C030606060606063F
:1026D000060606060606060606060C030C03980107
:1026E000F0000000000000000000000000000000FA
:1026F000000040007C00600060006000600060003E
:1027000060006000600060006000600060006000C9
:10271000FC030000000000000000000000000000BA
:102720000000F80084010203060306030003000111
:102730008001C000600020001000080204020602B0
:10274000FE03000000000000000000000000000088
:1027500000007800C6008601860180018001C0006B
:1027600070008001000100030003060306038601D8
:10277000F800000000000000000000000000000061
:10278000000080018001C001A001A001900188012A
:10279000880184018201FE0F800180018001800197
:1027A000E007000000000000000000000000000042
:1027B0000000FC0304000400040004000400F40012
:1027C0008C01040300030003060306038201840155
:1027D000F800000000000000000000000000000001
:1027E0000000E00118030C030C0004000600E601E1
:1027F00016030E0606060606060604060C02180355
:10280000F0000000000000000000000000000000D8
:102810000000F8070C06040204010001000180001A
:1028200080004000400040006000600060006000E8
:102830006000000000000000000000000000000038
:102840000000F8010C030606060606060C021C032F
:10285000F000C8010C0306060606060606060C0371
:10286000F001000000000000000000000000000077
:102870000000F0000C010C03060206060606060620
:1028800006078C0678060006000300030C018C0185
:1028900078000000000000000000000000000000C0
:1028A000000000000000000000000000E000E00068
:1028B000E00000000000000000000000E000E00078
:1028C000E000000000000000000000000000000028
:1028D0000000000000000000000000006000600038
:1028E0000000000000000000000000000000600088
:1028F00060004000200020000000000000000000F8
:1029000000040002000180004000200010000800C8
:1029100004000800100020004000800000010002B8
:1029200000040000000000000000000000000000A3
:10293000000000000000000000000000FE07000092
:1029400000000000FE070000000000000000000082
:102950000000000000000000000000000000000077
:102960000400080010002000400080000001000268
:102970000004000200018000400020001000080058
:102980000400000000000000000000000000000043
:102990000000E0031806040C040C0C0C0C0C0007DF
:1029A000800140004000400000000000E000E00026
:1029B000E000000000000000000000000000000037
:1029C000E00018030C02CC0564056605A605B604F4
:1029D000B604B604B604B602E4010C040C021803F3
:1029E000F0000000000000000000000000000000F7
:1029F0000000600060005000D0009000900088004F
:102A000088010801F801040304030402020202061B
:102A10000F0F000000000000000000000000000098
:102A20000000FE008C030C030C030C030C038C0150
:102A3000FC000C030C020C060C060C060C060C0326
:102A4000FE01000000000000000000000000000087
:102A50000000E00318030C060C0404040600060042
:102A6000060006000600060006040C040C0218030B
:102A7000F000000000000000000000000000000066
:102A800000007F008C010C030C030C060C060C06E6
:102A90000C060C060C060C060C060C030C038C0131
:102AA0007F000000000000000000000000000000A7
:102AB0000000FF03060306040604060086008600E5
:102AC000FE00860086008600060006040604060254
:102AD000FF030000000000000000000000000000F4
:102AE0000000FF03060306040604060086008600B5
:102AF000FE0086008600860006000600060006002E
:102B00001F000000000000000000000000000000A6
:102B10000000F00018010C020C020402060006007E
:102B200006000600C60F060306030C030C03180379
:102B3000F0000000000000000000000000000000A5
:102B400000000F0F0606060606060606060606061F
:102B5000FE0706060606060606060606060606061C
:102B60000F0F000000000000000000000000000047
:102B70000000FC0360006000600060006000600016
:102B80006000600060006000600060006000600045
:102B9000FC03000000000000000000000000000036
:102BA0000000F807C000C000C000C000C000C000A6
:102BB000C000C000C000C000C000C000C000C00015
:102BC000C000C60066003C000000000000000000DD
:102BD0000000CF038601C60046002600160036001E
:102BE0002E006E004600C600860086010601060320
:102BF0008F0700000000000000000000000000003F
:102C000000001F0006000600060006000600060081
:102C1000060006000600060006000604060406027A
:102C2000FF030000000000000000000000000000A2
:102C300000000707860386038E038E034E034E03B0
:102C40004A035A035A033A0332033203320312038C
:102C500087070000000000000000000000000000E6
:102C600000008E0F0C021C021C02340234026402AB
:102C700064024402C4028402840384030403040340
:102C80001F02000000000000000000000000000023
:102C90000000F00098010C030C020606060606066A
:102CA000060606060606060606060C020C03980132
:102CB000F000000000000000000000000000000024
:102CC0000000FF00060306060606060606060606C0
:102CD0008603FE0006000600060006000600060049
:102CE0001F000000000000000000000000000000C5
:102CF0000000F00098010C030C020606060606060A
:102D0000060606060606060676064C02CC03980161
:102D1000F000800700030000000000000000000039
:102D20000000FF0106030606060606060606060361
:102D3000FE004600C600860086010603060306065E
:102D40000F0E000000000000000000000000000066
:102D50000000F8020C030602060206000E003C000A
:102D6000F800E003800300070206020606060C03D3
:102D7000F001000000000000000000000000000062
:102D80000000FE07620461086108600060006000E6
:102D90006000600060006000600060006000600033
:102DA000F80100000000000000000000000000002A
:102DB00000001E070C020C020C020C020C020C029A
:102DC0000C020C020C020C020C020C020C02180188
:102DD000F000000000000000000000000000000003
:102DE00000000F070602040104010C010C01880019
:102DF00088009800980050005000700030002000BB
:102E000020000000000000000000000000000000A2
:102E10000000F70E620442044604460464026402A1
:102E2000E402E4029C029C01980198018801880058
:102E3000880000000000000000000000000000000A
:102E400000009E070C01080118019000B00060000E
:102E5000200060006000D000900088010801040399
:102E60008E070000000000000000000000000000CD
:102E700000000F0F060404020C0208011801B8003C
:102E8000B0007000600060006000600060006000E2
:102E9000F801000000000000000000000000000039
:102EA0000000FC070C0206030201800180004000C4
:102EB0004000200020001000180008040C04040248
:102EC000FE0300000000000000000000E0032000FE
:102ED00020002000200020002000200020002000F2
:102EE00020002000200020002000200020002000E2
:102EF00020002000E00300000000000000000000AF
:102F00000400040008000800100010001000200059
:102F1000200040004000C00080008000000100014F
:102F20000002000200020004000000007C004000DB
:102F30004000400040004000400040004000400091
:102F40004000400040004000400040004000400081
:102F5000400040007C00000000006000900008017C
:102F60000000000000000000000000000000000061
:102F70000000000000000000000000000000000051
:102F80000000000000000000000000000000000041
:102F90000000000000000000000000000000000031
:102FA0000000000000000000000000000000000021
:102FB000000000000000FF0F00000000180060008B
:102FC0000000000000000000000000000000000001
:102FD00000000000000000000000000000000000F1
:102FE00000000000000000000000000000000000E1
:102FF000000000000000000000000000F0010C03D1
:103000000C030003E0031C030E03060306038E0BF0
:103010007C0E000000000000000000000000000026
:1030200008000E000C000C000C000C00CC013C034E
:103030001C060C060C060C060C060C060C021C03E7
:10304000E40100000000000000000000000000009B
:10305000000000000000000000000000F0008C01F3
:103060008C01860106000600060006020C020C0117
:10307000F000000000000000000000000000000060
:103080000002C003000300030003000378038C0365
:103090000C030603060306030603060304038C075A
:1030A00078010000000000000000000000000000A7
:1030B000000000000000000000000000E001180314
:1030C00008020C060C06FC070C000C001804180281
:1030D000E00100000000000000000000000000000F
:1030E0000000C0036006300630003000FE013000F2
:1030F0003000300030003000300030003000300050
:10310000FC010000000000000000000000000000C2
:10311000000000000000000000000000F007D806DA
:103120008C018C018C019801F8000C00FC00CC0390
:10313000060306038E03F8000000000000000000F4
:1031400008000E000C000C000C000C00EC011C032D
:103150000C030C030C030C030C030C030C030C03F7
:103160009E070000000000000000000000000000BA
:103170000000600060000000000040007C00600073
:10318000600060006000600060006000600060003F
:10319000FC03000000000000000000000000000030
:1031A0000000C001C001000000000001F00180012A
:1031B0008001800180018001800180018001800107
:1031C00080018001CC007C000000000000000000B5
:1031D00008000E000C000C000C000C008C038C008E
:1031E0008C004C006C005C008C008C010C010C030A
:1031F0009E0700000000000000000000000000002A
:1032000040007C00600060006000600060006000C2
:1032100060006000600060006000600060006000AE
:10322000FC0300000000000000000000000000009F
:103230000000000000000000000000003707EE065C
:10324000660666066606660666066606660666061E
:10325000FF0F000000000000000000000000000060
:10326000000000000000000000000000EE011C0350
:103270000C030C030C030C030C030C030C030C03D6
:103280009E07000000000000000000000000000099
:10329000000000000000000000000000F0009801A5
:1032A0000C03060606060606060606060C030C03B5
:1032B000F00000000000000000000000000000001E
:1032C000000000000000000000000000EE011C03F0
:1032D0000C060C060C060C060C060C060C031C0354
:1032E000EC010C000C003E0000000000000000009B
:1032F00000000000000000000000000078028C03C5
:103300000C030603060306030603060304038C03EB
:10331000780300030003C007000000000000000065
:103320000000000000000000000000009F0358069D
:1033300038061800180018001800180018001800A7
:10334000FF0000000000000000000000000000007E
:10335000000000000000000000000000F0031C035B
:103360000C020C023800F000C003040304038C03B9
:10337000FC01000000000000000000000000000050
:10338000000000002000200030003000FE0130006E
:1033900030003000300030003000300030023002A9
:1033A000E00100000000000000000000000000003C
:1033B0000000000000000000000008028E030C0363
:1033C0000C030C030C030C030C030C030C039C07F1
:1033D0007801000000000000000000000000000074
:1033E0000000000000000000000000001E070C02AA
:1033F0000801080118019000B000B00060006000F2
:10340000200000000000000000000000000000009C
:10341000000000000000000000000000F70E620441
:10342000460464026402EC029C0198019801980130
:103430000800000000000000000000000000000084
:10344000000000000000000000000000BC071801A0
:103450001001B00060006000E00090000801080367
:103460009E070000000000000000000000000000B7
:103470000000000000000000000000009E0708019E
:103480000801080190009000B0006000600060003A
:103490002000200024001C000000000000000000AC
:1034A000000000000000000000000000FC0184019A
:1034B000C4004400600020003000180208020C0321
:1034C000FC0100000000000000000000000380007C
:1034D000800080008000800080008000800040002C
:1034E000200040008000800080008000800080007C
:1034F00080008000000300004000400040004000C9
:1035000040004000400040004000400040004000BB
:1035100040004000400040004000400040004000AB
:103520004000400040004000000000000C0010007F
:1035300010001000100010001000100010002000FB
:1035400040002000100010001000100010001000BB
:10355000100010000C00000000001C002204C20437
:1035600080030000000000000000000000000000D8
:10357000000000000000000000000000000000004B
:10358000000000000000000000000000000000003B
:10359000000000000000000000000000000000002B
:1035A000000000000000000000000000000000001B
:1035B000000000000000000000000000000000000B
:1035C00000000000000000000000000000000000FB
:1035D0000000C001C001C001C001C001C001C001A4
:1035E000800080008000800080008000800000005B
:1035F0000000000000008001C003C0038001000043
:103600000000000000000000000000000000E01CBE
:10361000E01CF01E700E380718030801840000003B
:10362000000000000000000000000000000000009A
:10363000000000000000000000000000000000008A
:10364000000000000000000000000000000000007A
:103650000000000020102010201020102010FE7FFD
:10366000FE7F100810081008100810081008100835
:10367000FE7FFE7F08040804080408040804000014
:10368000000000000000000000000000000000003A
:1036900000010001C00760191031183118391839BC
:1036A00038017001E001C0038007000F001D0039E0
:1036B00000311C311C310C310C11180DE0070001D8
:1036C00000010001000000000000000000000000F8
:1036D000000000001C1036186308630C63046304C8
:1036E000630263026301361D9C378022806340635E
:1036F000406320632063306310221836081C0000EA
:1037000000000000000000000000000000000000B9
:1037100000000000F00098018C018C018C018C01EC
:103720008C00CC007800183E1C0836083208630470
:103730006304C304C303834306438E26781C00003E
:1037400000000000000000000000000000001C005D
:103750003C003C003000300010000C00060000006F
:103760000000000000000000000000000000000059
:103770000000000000000000000000000000000049
:1037800000000000000000000000000000000040F9
:10379000002000100008000C0004000600030003D5
:1037A000000380018001800180018001800180018F
:1037B000800100030003000300060006000C00085F
:1037C0000010002000400000000000000000020087
:1037D000040008001000300020006000C000C0009D
:1037E000C000800180018001800180018001800192
:1037F0008001C000C000C000600060003000100008
:1038000008000400020000000000000000000000AA
:1038100000000000000000000001800380030001A0
:103820001C713C79783DC0070001C007783D3C79A8
:103830001C71000180038003800100000000000073
:103840000000000000000000000000000000000078
:103850000000000000000000000000010001000165
:103860000001000100010001FC7F000100010001D6
:103870000001000100010001000000000000000044
:103880000000000000000000000000000000000038
:103890000000000000000000000000000000000028
:1038A0000000000000000000000000000000000018
:1038B00000000000000000001C003C003C00300044
:1038C000300010000C0006000000000000000000A6
:1038D00000000000000000000000000000000000E8
:1038E0000000000000000000FE7F0000000000005B
:1038F00000000000000000000000000000000000C8
:1039000000000000000000000000000000000000B7
:1039100000000000000000000000000000000000A7
:103920000000000000000000000000000000000097
:1039300000000000000018003C003C0018000000DF
:103940000000000000000000000000000000004037
:10395000006000200030001000180008000C000477
:10396000000600020003000180018000C00040004A
:103970006000200030001000180008000C00040057
:10398000060002000000000000000000000000002F
:1039900000000000C007600C3018183018301820E4
:1039A0000C600C600C600C600C600C600C600C60B7
:1039B0000C601820183018303018600CC007000058
:1039C00000000000000000000000000000000000F7
:1039D0000000000000018001F801800180018001E9
:1039E00080018001800180018001800180018001CF
:1039F00080018001800180018001C003F81F000068
:103A000000000000000000000000000000000000B6
:103A100000000000E007101C0818043004300C30CF
:103A20000C30003000180008000400020001800083
:103A300040002020102008200430FC1FFC1F000044
:103A40000000000000000000000000000000000076
:103A500000000000E003180E0C0C0C180C180C18D9
:103A60000018000C0006C003000E00180010003003
:103A700000300C300C300C100C18180CE003000057
:103A80000000000000000000000000000000000036
:103A900000000000000C000E000E000F800E800ED3
:103AA000400E600E200E100E100E080E040E040EB6
:103AB000FE7F000E000E000E000E000E000EC07FF6
:103AC00000000000000000000000000000000000F6
:103AD00000000000F03FF03F100010001000080050
:103AE0000800C807280C18180810003000300030F3
:103AF00000300C300C3004180418080CF0030000DF
:103B000000000000000000000000000000000000B5
:103B100000000000800FC010203010301800180086
:103B200008000C008C0F6C183C301C600C600C60A2
:103B30000C600C601860182030306018C00700005E
:103B40000000000000000000000000000000000075
:103B500000000000F83FF83F1C100C0804080404A3
:103B6000000400020002000100010001800080004A
:103B70008000C000C000C000C000C000C000000045
:103B80000000000000000000000000000000000035
:103B900000000000E007300C18180C300C300C301E
:103BA0001C3038187008E007B007180E0C1C0638D7
:103BB00006300630063006300C18180CE003000002
:103BC00000000000000000000000000000000000F5
:103BD00000000000E00318040C080C180610063062
:103BE00006300630063006380C3C1836F03100300E
:103BF0000018001800180C0C0C060C03F001000053
:103C000000000000000000000000000000000000B4
:103C100000000000000000000000000000000000A4
:103C200000008001C003C00380010000000000000C
:103C30000000000000008001C003C00380010000FC
:103C40000000000000000000000000000000000074
:103C50000000000000000000000000000000000064
:103C60000000C000C00000000000000000000000D4
:103C700000000000000000000000C000C000800044
:103C80008000400040000000000000000000000034
:103C9000000000200010000800040006000380015E
:103CA000C0006000300018000C00180030006000F8
:103CB000C00080010003000600040008001000207E
:103CC00000000000000000000000000000000000F4
:103CD00000000000000000000000000000000000E4
:103CE0000000FE7F00000000000000000000FE7FDA
:103CF00000000000000000000000000000000000C4
:103D000000000000000000000000000000000000B3
:103D1000000004000800100020006000C0008001C6
:103D200000030006000C001800300018000C00060C
:103D300000038001C00060002000100008000400A3
:103D40000000000000000000000000000000000073
:103D50000000C0073018083008600C601C601C6050
:103D60001C600030001C0006000180008000800004
:103D70008000000000008001C003C003800100003B
:103D80000000000000000000000000000000000033
:103D900000000000C0076018103018200C2F8C4D58
:103DA000864CC64CC64C664C6644664466266626FF
:103DB0006615CC1C0C40082018303018C0070000D5
:103DC00000000000000000000000000000000000F3
:103DD00000000001C001C001C001400160032003D8
:103DE000200320033006100610061006F80F080CFA
:103DF000080C080C0C0C0418041806181F7C000092
:103E000000000000000000000000000000000000B2
:103E100000000000FE07181C183818301830183041
:103E200018301818180CF8071818183018201860CF
:103E3000186018601860186018301818FE0F00001D
:103E40000000000000000000000000000000000072
:103E500000000000C0276038103018200C400C40D3
:103E60000400060006000600060006000600060024
:103E700006000C400C400C2018303018C007000021
:103E80000000000000000000000000000000000032
:103E900000000000FE03180E1818183018301830F3
:103EA0001860186018601860186018601860186052
:103EB00018601830183018101818180EFE0300007B
:103EC00000000000000000000000000000000000F2
:103ED00000000000FE3F183018201860184018003D
:103EE00018081808180CF80F180C180818081800EB
:103EF000180018001840184018201830FE3F000025
:103F000000000000000000000000000000000000B1
:103F100000000000FE7F1870184018C018801800BC
:103F2000181018101818F81F181818101810180062
:103F30001800180018001800180018007E00000073
:103F40000000000000000000000000000000000071
:103F500000000000C013701C101018100C200C2062
:103F600004000600060006000600060006FC0630F7
:103F700006300C300C30183018303008C007000004
:103F80000000000000000000000000000000000031
:103F9000000000003F7E0C180C180C180C180C18B0
:103FA0000C180C180C180C18FC1F0C180C180C18FA
:103FB0000C180C180C180C180C180C183F7E00006C
:103FC00000000000000000000000000000000000F1
:103FD00000000000F81F8001800180018001800145
:103FE00080018001800180018001800180018001C9
:103FF000800180018001800180018001F81F0000A4
:1040000000000000000000000000000000000000B0
:1040100000000000E07F0006000600060006000623
:104020000006000600060006000600060006000660
:104030000006000600060006000600060006000650
:104040000E060E038E01FC000000000000000000C0
:10405000000000007E7C18181808180418061802C2
:10406000180198019801D801B803380318071806F9
:10407000180E180C181C1818183018307EFC000088
:104080000000000000000000000000000000000030
:10409000000000007E00180018001800180018002A
:1040A0001800180018001800180018001800180050
:1040B000180018001840184018201830FE3F000063
:1040C00000000000000000000000000000000000F0
:1040D000000000001FF81C381C381C381C3C34340D
:1040E0003434343434367432643264326432643199
:1040F000C431C431C431C430C43084309FFC0000AA
:1041000000000000000000000000000000000000AF
:10411000000000001F7C1C103C1034103410741080
:104120006410E410C410C411841184130413041720
:104130000416041E041C041C041C04181F18000090
:10414000000000000000000000000000000000006F
:1041500000000000C003300C181808100C300C30A0
:10416000066006600660066006600660066006601F
:1041700006600C200C3008101818300CC00300002A
:10418000000000000000000000000000000000002F
:1041900000000000FE0F1818183018601860186032
:1041A0001860186018301818F80F18001800180058
:1041B0001800180018001800180018007E000000F1
:1041C00000000000000000000000000000000000EF
:1041D00000000000C003300C18180C100C300C202C
:1041E000066006600660066006600660066006609F
:1041F0000660E4612C331C321816300EC007004CE8
:10420000007C0038000000000000000000000000FA
:1042100000000000FE07181C18381830183018303D
:1042200018301818180CF807980318031807180600
:104230001806180E180C180C181C18187E78000098
:10424000000000000000000000000000000000006E
:1042500000000000E027303818300C200C200C0043
:104260000C0018007800E003800F001E003800707A
:10427000006004600460086018303818C80F00003F
:10428000000000000000000000000000000000002E
:1042900000000000FC3F8C2184618241824180014A
:1042A0008001800180018001800180018001800106
:1042B000800180018001800180018001E007000011
:1042C00000000000000000000000000000000000EE
:1042D000000000003F7C0C100C100C100C100C1097
:1042E0000C100C100C100C100C100C100C100C10EE
:1042F0000C100C100C100C1008083804E00300001F
:1043000000000000000000000000000000000000AD
:10431000000000003EF8182018201820301030103F
:1043200030103010600860086008E00CC004C00461
:10433000C0048003800380038003000100010000AB
:10434000000000000000000000000000000000006D
:1043500000000000DFF38661862186218C210C217C
:104360008C238C138C138C134C1358125816580E24
:10437000380E380E380E300C1004100410040000F3
:10438000000000000000000000000000000000002D
:10439000000000007E3E1808380830043004700227
:1043A0006002E001C001C0018001800340034007BA
:1043B00020062006100C100C081808183E7C00007F
:1043C00000000000000000000000000000000000ED
:1043D000000000007E7C1C10181018083008300CFB
:1043E000700460046002C002C002C001800180014C
:1043F000800180018001800180018001E0070000D0
:1044000000000000000000000000000000000000AC
:1044100000000000F83F18180818040C040E0006ED
:104420000007000380038001C001C000E0006000BD
:1044300070003000382018201C100C18FE1F0000DF
:104440000000000000000000000000000000C03F6D
:10445000400040004000400040004000400040005C
:10446000400040004000400040004000400040004C
:10447000400040004000400040004000400040003C
:104480004000C03F000000000000000000000000ED
:104490000000080018001800100030002000600024
:1044A00060004000C0008000800180010001000326
:1044B0000002000600060004000C000800180018A6
:1044C0000010003000200000000000000000FC038D
:1044D00000020002000200020002000200020002CC
:1044E00000020002000200020002000200020002BC
:1044F00000020002000200020002000200020002AC
:104500000002FC0300000000000000000000800723
:10451000C00620081010000000000000000000008D
:10452000000000000000000000000000000000008B
:10453000000000000000000000000000000000007B
:10454000000000000000000000000000000000006B
:10455000000000000000000000000000000000005B
:10456000000000000000000000000000000000004B
:10457000000000000000000000000000000000003B
:10458000000000000000FFFF0000000000007800B5
:10459000C00000010000000000000000000000005A
:1045A000000000000000000000000000000000000B
:1045B00000000000000000000000000000000000FB
:1045C00000000000000000000000000000000000EB
:1045D00000000000000000000000000000000000DB
:1045E0000000F00318060C0C0C0C000C800F700C73
:1045F0001C0C0C0C060C060C064C0C4FF83800007A
:1046000000000000000000000000000000000000AA
:10461000000010001E0018001800180018001800F4
:104620001800180FD81838303860186018601860F3
:10463000186018601860182038307818C807000013
:10464000000000000000000000000000000000006A
:10465000000000000000000000000000000000005A
:104660000000C007700C181818180C180C000C006B
:104670000C000C000C20182018103008C007000097
:10468000000000000000000000000000000000002A
:1046900000000010001E0018001800180018001874
:1046A0000018E01B301C181818180C180C180C18DF
:1046B0000C180C180C180818181C307AE0090000A7
:1046C00000000000000000000000000000000000EA
:1046D00000000000000000000000000000000000DA
:1046E0000000C007300C181808100C300C30FC3FCC
:1046F0000C000C000C00182018107018C0070000E7
:1047000000000000000000000000000000000000A9
:1047100000000000003E80C380C0C0C0C000C000D8
:10472000C000FC1FC000C000C000C000C000C0002E
:10473000C000C000C000C000C000C000F80F0000F2
:104740000000000000000000000000000000000069
:104750000000000000000000000000000000000059
:104760000000C077306C1018181818181818101896
:10477000300CF00718001800F00FF03F08700C60C4
:104780000C600C603838E00F0000000000000000F2
:10479000000010001E001800180018001800180073
:1047A0001800980FD81838301830183018301830D2
:1047B0001830183018301830183018307EFC0000CF
:1047C00000000000000000000000000000000000E9
:1047D0000000000080038003800300000000000050
:1047E0000001F801800180018001800180018001C9
:1047F000800180018001800180018001F81F00009C
:1048000000000000000000000000000000000000A8
:1048100000000000003800380038000000000000F0
:104820000010801F00180018001800180018001849
:1048300000180018001800180018001800180018B8
:104840000018180C1806F00300000000000000001B
:10485000000010001E0018001800180018001800B2
:104860001800183E180C1806180318019801D801F2
:10487000380318071806180C181C18187E7C00003E
:104880000000000000000000000000000000000028
:1048900000000001F8018001800180018001800199
:1048A0008001800180018001800180018001800100
:1048B000800180018001800180018001F81F0000DB
:1048C00000000000000000000000000000000000E8
:1048D00000000000000000000000000000000000D8
:1048E0000800EE1C9C338C318C318C318C318C3136
:1048F0008C318C318C318C318C318C31DE7B0000F1
:1049000000000000000000000000000000000000A7
:104910000000000000000000000000000000000097
:1049200010001E0FD81838301830183018301830D2
:104930001830183018301830183018307EFC00004D
:104940000000000000000000000000000000000067
:104950000000000000000000000000000000000057
:104960000000C007701C103018300C600C600C6028
:104970000C600C600C60183018303018C007000054
:104980000000000000000000000000000000000027
:104990000000000000000000000000000000000017
:1049A00010009E0F581838301820186018601860D2
:1049B0001860186018601830383078189807180098
:1049C0001800180018007E00000000000000000021
:1049D00000000000000000000000000000000000D7
:1049E0000000C023303C183818300C300C300C302C
:1049F0000C300C300C3008301838303CE0330030CC
:104A000000300030003000FC00000000000000001A
:104A10000000000000000000000000000000000096
:104A200060007E3C60666061E000E0006000600065
:104A3000600060006000600060006000FE07000031
:104A40000000000000000000000000000000000066
:104A50000000000000000000000000000000000056
:104A60000000E02730381830182018007000E003EC
:104A7000800F001C043004300C301C18EC0F0000B8
:104A80000000000000000000000000000000000026
:104A90000000000000000000800080008000C000D6
:104AA000E000FC1FC000C000C000C000C000C0008B
:104AB000C000C000C000C020C0208011000F000056
:104AC00000000000000000000000000000000000E6
:104AD00000000000000000000000000000000000D6
:104AE00010201E3C1830183018301830183018308C
:104AF0001830183018301830183830F4E01300002F
:104B000000000000000000000000000000000000A5
:104B10000000000000000000000000000000000095
:104B200000007E3C18181808380830043004700261
:104B300060026002E001C001C001C000800000000E
:104B40000000000000000000000000000000000065
:104B50000000000000000000000000000000000055
:104B60000000DFF78E630C238C238C23981398139B
:104B700058165816700E700E700E20042004000097
:104B80000000000000000000000000000000000025
:104B90000000000000000000000000000000000015
:104BA0000000FC3E70087004E004C002C0018003F5
:104BB000800340076006200C100C18183E7E000091
:104BC00000000000000000000000000000000000E5
:104BD00000000000000000000000000000000000D5
:104BE00000007E7C18181808300830083004600473
:104BF0006004C002C002C002800180018001800008
:104C0000800080004C003C0000000000000000001C
:104C10000000000000000000000000000000000094
:104C20000000FC1F0C0C040E04060003800380012E
:104C3000C000E0007020302038301C18FC1F00003D
:104C40000000000000000000000000000000003034
:104C50000008000400040004000400040004000430
:104C600000040004000400028001000200040004AB
:104C70000004000400040004000400040004000414
:104C800000040008003000000001000100010001E4
:104C9000000100010001000100010001000100010C
:104CA00000010001000100010001000100010001FC
:104CB00000010001000100010001000100010001EC
:104CC00000010001000100010000000000000C00D4
:104CD00010002000200020002000200020002000E4
:104CE0002000200020004000800140002000200023
:104CF00020002000200020002000200020002000B4
:104D0000200010000C00000000003800C4008640A5
:104D100002610022001C00000000000000000000F2
:104D20000000000000000000000000000000000083
:104D30000000000000000000000000000000000073
:104D40000000000000000000684D00080000002086
:104D50000800000008010008704D0008080000204D
:104D6000680600002401000800127A00000000001C
:04000005080000CD22
:00000001FF
